:020000040800F2
:10000000B80600200101000849120008BD0C0008D4
:1000100045120008E10900089918000800000000D6
:10002000000000000000000000000000FB140008B9
:10003000A50B0008000000007F1300080D16000843
:100040001B0100081B0100081B0100081B01000820
:100050001B0100081B0100081B0100081B01000810
:100060001B0100081B0100081B0100081B01000800
:100070001B0100081B0100081B0100081B010008F0
:100080001B0100081B0100081B0100081B010008E0
:100090001B0100081B0100081B0100081B010008D0
:1000A0001B0100081B0100081B0100081B010008C0
:1000B0001B010008711600081B0100081B01000845
:1000C0001B0100081B0100081B0100081B010008A0
:1000D0001B0100081B0100081B0100081B01000890
:1000E0001B0100081B0100081B010008DFF80CD0F1
:1000F00000F064FC0048004789270008B80600208B
:100100000648804706480047FEE7FEE7FEE7FEE7B1
:10011000FEE7FEE7FEE7FEE7FEE7FEE71116000852
:10012000ED000008F0B480EA0102D40F4200B2EB07
:10013000410F02D20246084611464A0042D0C30D82
:10014000DDB2C1F3C752AD1A202D35DAC1F3160165
:1001500041F4000204B15242C5F1200602FA06F150
:100160002A411044B3EBD05F23D0C4B1012DA0EBE2
:10017000C35009DCF0BC4FF0004202EAC352DBB2CC
:1001800000F5000000F00FBB400000F1807000EBB4
:10019000C350A0F1807040EAD170490009E04908DD
:1001A00041EAC071A0EBC35000F50000400800EB2D
:1001B000C350F0BC00F0EEBA6142012202EB4101F3
:1001C000001BF6E7F0BC704781F00041AAE780F021
:1001D0000040A7E780EA010210B502F000434000AA
:1001E00022D04A001FD0010E01EB1261C0F356006D
:1001F000C2F3560240F4000042F40002A0FB0220C9
:1002000000047F39140400D0401C50EA124001D48D
:100210004000491EC2B20C0604EBD010401C40083E
:10022000802A02D003E0002010BD20F00100002948
:1002300000DA0020184310BD30B480EA010202F059
:10024000004530F0004221F0004013D090B1C30DC2
:10025000D40DC2F31601C0F31600E41A41F40001F4
:1002600040F400027D34914201D3641C00E0490057
:10027000002C02DA30BC002070474FF4000000234D
:10028000914201D3891A034340084FEA4101F7D153
:1002900051B1914202D14FF0004105E002D24FF03E
:1002A000010101E06FF0010103EBC450284430BCB0
:1002B00000F070BA2DE9FE4F804681EA0300C00FBE
:1002C0000C46009021F0004123F00045B8EB0200FD
:1002D000A94105D24046214690461C460B4602469F
:1002E00023F00040104347D0270DC7F30A00C3F3A3
:1002F0000A510290401A019040286BDAC3F31300B0
:1003000040F4801B0098924620B10023D2EB030AF0
:1003100063EB0B0B01985946C0F14002504600F0C8
:1003200008FA06460D4650465946019A00F020FA52
:1003300010EB08006141002487EA115284EAE77358
:100340001A4340D0009A62B3019A012A4FEA075239
:1003500015DC001B61EB02014FF0004202EA07527C
:10036000CDE90042001C41F5801132462B4600F0D9
:1003700057FA03B0BDE8F08F40462146F9E7001B6D
:1003800061EB0201001C41F5801300185B4120184D
:10039000A2F5001747EB030140EAD570B6196D418D
:1003A00011E06D084FEA360645EAC0754FEA07527C
:1003B000001B61EB0201001C41F5801149084FEA66
:1003C00030000019514132462B4603B0BDE8F04FD2
:1003D00000F017BA0098012240000023D0EB02027F
:1003E00063EBE073009821464FEAE074B8EB00003D
:1003F00061EB0401E9E783F000435BE781F0004132
:1004000058E72DE9FE4F81EA030404F0004421F08F
:10041000004100944FF0000B23F0004350EA010428
:100420005ED052EA03045BD0C3F30A54C1F30A5509
:100430002C44A4F2F3340194A0FB0254C1F3130141
:1004400041F48011C3F3130343F4801301FB02440E
:1004500000FB034E840A970A44EA815447EA835713
:10046000A4FB076802958D0A05FB07854FEA932CCC
:1004700004FB0C542705029D4FEA065847EA16373D
:10048000B5EB08056EEB070C870E920E47EA811755
:1004900042EA8312A7FB0201B6EB0B0164EB0004F6
:1004A0002B0D43EA0C335E1844EB1C50DA465146E0
:1004B000E7FB0201C5F313044FEA0B3343EA14537D
:1004C0004FEA0432019C43EA0603A4F10C040294AF
:1004D000009CCDE900B400F0A3F903B0BDE8F08FB3
:1004E00000200146F9E72DE9F04D81EA030404F00C
:1004F000004B21F0004514464FF0000A23F0004164
:1005000050EA050220D054EA01021DD0C5F30A5773
:100510000246C5F31303C1F31300C1F30A5640F4B6
:10052000801543F48013A7EB0608101BD64608F28B
:10053000FD3873EB050002D308F1010801E09218C1
:100540005B41B8F1000F03DA00200146BDE8F08DF1
:1005500000204FF48011064684460EE0171B73EB13
:10056000050705D3121B63EB050306434CEA010C98
:1005700049084FEA300092185B4150EA0107EDD17B
:1005800052EA030012D082EA040083EA050108431C
:1005900005D0101BAB4106D20122002306E0002249
:1005A0004FF0004302E06FF0010253101AEB060017
:1005B0004CEB085110EB0A0041EB0B01BDE8F04D8C
:1005C00000F01FB90EB5C10F80EAE0700844CA07F9
:1005D000002140F233438DE80E000A460B4600F03E
:1005E0001FF903B000BD00F0004230F000400AD017
:1005F000C10D01F56071C0F3160042EA0151C20855
:1006000040071143704700200146704730B5041E73
:1006100071F1000404DB4FF00044404264EB01013F
:10062000141E73F1000405DB1C464FF000435242D8
:1006300063EB04038B4208BF824230BD30B5041E19
:1006400071F1000404DB4FF00044404264EB01010F
:10065000141E73F1000405DB1C464FF000435242A8
:1006600063EB0403994208BF904230BD01F00043A0
:1006700030B421F0004150EA010206D00A0DA2F583
:100680006072C1F31301002A02DC30BC0020704705
:10069000440F44EAC104C100E01830BC00EBC25072
:1006A00000F078B830B50B46014600202022012426
:1006B00009E021FA02F59D4205D303FA02F5491B30
:1006C00004FA02F52844151EA2F10102F1DC30BD46
:1006D0002DE9F05F0546002092469B468846064677
:1006E000814640241BE0284641464746224600F00A
:1006F0002FF853465A46C01A914110D31146184656
:10070000224600F016F82D1A67EB01084F462246E4
:100710000120002100F00DF817EB00094E41201ECA
:10072000A4F10104DFDC484631462A464346BDE8D1
:10073000F09F202A04DB203A00FA02F100207047E3
:100740009140C2F1200320FA03F31943904070470F
:10075000202A04DB203A21FA02F00021704721FA16
:1007600002F3D040C2F1200291400843194670477D
:10077000202A06DBCB17203A41FA02F043EAE07365
:1007800006E041FA02F3D040C2F120029140084352
:10079000194670470029A8BF7047401C490008BF90
:1007A00020F00100704710B4B0FA80FC00FA0CF0A1
:1007B00050EA010404BF10BC704749B1CCF12004D9
:1007C00021FA04F411FA0CF118BF01212143084366
:1007D000A3EB0C01CB1D4FEA00614FEA102042BF92
:1007E000002010BC704700EBC35010440029A4BF88
:1007F00010BC7047401C490008BF20F0010010BC2D
:10080000704710B5141E73F1000408DA401C41F162
:10081000000192185B411A4301D120F0010010BD84
:100820002DE9F04D92469B4611B1B1FA81F202E0FA
:10083000B0FA80F220329046FFF77BFF04460F4665
:1008400040EA0A0041EA0B0153465A46084313D0D6
:10085000114653EA010019D0C8F140025046FFF793
:1008600077FF05460E46504659464246FFF761FF60
:10087000084305D0012004E020463946BDE8F08D4C
:100880000020054346EAE0762C4337430A98630587
:10089000E40AA0EB08000022FD0A44EA47540A30AB
:1008A00002D500200146E9E7010510196941DDE99B
:1008B000084500196941BDE8F04DA2E770B521F087
:1008C000004303430CD0C1F30A550024D5EB0405C3
:1008D00064EB0403D617AD1AB34102DB00200146D6
:1008E00070BD201841EB025170BD2DE9F04D002381
:1008F0001A461B1A8A4103DB00200146BDE8F08D31
:10090000C1F30A52C1F3130141F480154FF0000BFB
:10091000D10702D100186D41521E0027044640F253
:10092000FF11384601EB620A3E468046024600202F
:100930004FF48011FFF70CFFC2197141BB1846EB51
:100940000100B4EB030C75EB000C04D3E41A65EB67
:10095000000517460E46241908F101006D41804636
:100960003428E3DDF91946EB0600091BA84103D240
:100970004FF0FF32134601E0002213461BEB070045
:1009800046EB0A51BDE8F04DFFF73BBFC1F30A52F9
:10099000C1F3130140F2FF3341F480119A4202DAAD
:1009A00000200146704740F233439A42A2F233429C
:1009B00002DC5242FFF7CCBEFFF7BBBE064C074D30
:1009C00006E0E06840F0010394E80700984710341F
:1009D000AC42F6D3FFF78EFB902C0008B02C000839
:1009E00000BFFEE700F0805111B10349086001E04B
:1009F00002494860704700000404024000000240C1
:100A000021B1026842F00102026004E002684FF680
:100A1000FE731A400260704701684FF6FE72114083
:100A200001600021016041608160C1604B498842E2
:100A300008D14A490839496841F00F01474A083A44
:100A400051608AE045491431884208D14349083948
:100A5000496841F0F001414A083A51607DE03F4960
:100A60002831884208D13D490839496841F470610C
:100A70003A4A083A516070E038493C31884208D11E
:100A800036490839496841F47041344A083A51609E
:100A900063E032495031884208D130490839496809
:100AA00041F470212D4A083A516056E02B496431D7
:100AB000884208D129490839496841F47001274A18
:100AC000083A516049E025497831884208D12349E4
:100AD0000839496841F07061204A083A51603CE0A9
:100AE0001F49884206D1011F096841F00F01021F0A
:100AF000116032E01A491431884208D11849091F9F
:100B0000096841F0F001164A121F116025E01449EE
:100B10002831884208D11249091F096841F47061DF
:100B20000F4A121F116018E00D493C31884208D16C
:100B30000B49091F096841F47041094A121F1160ED
:100B40000BE007495031884207D10549091F096860
:100B500041F47021024A121F1160704708000240E0
:100B60000804024010B50022026847F6F0739A4369
:100B70000C6A8B6823430C6923434C6923438C69BB
:100B80002343CC6923434C6A23438C6A23431A438F
:100B90000260CB6843600B6883604B68C36010BD24
:100BA0004160704770472DE9F0410246002500265C
:100BB000002000230024002791F803C00CF00F054B
:100BC00091F803C00CF0100CBCF1000F03D091F8A9
:100BD00002C04CEA050591F800C0BCF1000F31D00D
:100BE000146800202BE04FF0010C0CFA00F3B1F870
:100BF00000C00CEA03069E4220D183004FF00F0C88
:100C00000CFA03F7BC4305FA03FC4CEA040491F820
:100C100003C0BCF1280F06D14FF0010C0CFA00FC08
:100C2000C2F814C00AE091F803C0BCF1480F05D126
:100C30004FF0010C0CFA00FCC2F810C0401C082850
:100C4000D1D31460B1F800C0BCF1FF0F34DD54689B
:100C500000202EE000F1080C4FF0010808FA0CF318
:100C6000B1F800C00CEA03069E4221D183004FF088
:100C70000F0C0CFA03F7BC4305FA03FC4CEA04041E
:100C800091F803C0BCF1280F05D100F1080C08FA57
:100C90000CF8C2F8148091F803C0BCF1480F07D1DA
:100CA00000F1080C4FF0010808FA0CF8C2F81080A7
:100CB000401C0828CED35460BDE8F08100BFFEE799
:100CC0002DE9FF4F95B0044615461E46DDE9238900
:100CD000229F00200D900C9049464846FFF77AFA73
:100CE000414606904046FFF775FA3946049038466B
:100CF000FFF770FA03900499FFF714FA059006992C
:100D0000FFF710FA0790FFF76EFCCDE9080101F03C
:100D100097FECDE90A01FFF7A9FC12903846129917
:100D2000FFF78AFA074640461299FFF785FA804690
:100D300048461299FFF780FA8146FE480168FE484E
:100D40000068FFF747FA0A90FC480168FC48006811
:100D5000FFF740FA09900A99FFF736FA4FF0804101
:100D60000B90FFF737FA1190F4480168F1480068DA
:100D7000FFF730FA0A90F2480168EF480068FFF781
:100D800029FA09900A99FFF7CDF94FF080410B90AD
:100D9000FFF720FA1090E94801680068FFF71AFA97
:100DA0000B90E44801680068FFF714FA0990E448E2
:100DB00001680068FFF70EFA0790DF4801680068D5
:100DC000FFF708FA06900799FFF7FEF908900999CE
:100DD000FFF7FAF90A900B99FFF7A4F90F9048462C
:100DE0001099FFF7F7F90B9040460F99FFF7F2F9CA
:100DF0000A900B99FFF7E8F9824638460F99FFF7FA
:100E0000E9F90B9048461199FFF7E4F90A900B991C
:100E1000FFF7DAF9834640461199FFF7DBF90B90AB
:100E200038461099FFF7D6F90A900B99FFF7CCF9DD
:100E30000E90C4495046FFF7CDF90B90C2480168A7
:100E40000B98FFF76FF9C0490860BE495846FFF795
:100E5000C1F90B90BD4801680B98FFF763F9BB49D6
:100E60000860B8490E98FFF7B5F90B90B8480168CB
:100E70000B98FFF757F9B64908605146B548FFF798
:100E8000A9F90A901699FFF74DF90B90AE48016841
:100E90000B98FFF747F916905946AE48FFF79AF9B5
:100EA00029460A90FFF73EF90B90A84801680B9875
:100EB000FFF738F90546A7480E99FFF78BF9314639
:100EC0000A90FFF72FF90B90A14801680B98FFF7E4
:100ED00029F90646314699480068FFF77BF929460B
:100EE000099094480068FFF775F9079094480068E6
:100EF00080F0004005901699FFF76CF9069007996D
:100F0000FFF762F908900999FFF75EF992490A9094
:100F1000FFF760F90B90884801680B98FFF702F91A
:100F200085490860294685480068FFF753F931462E
:100F3000099080480068FFF74DF907907E481699A0
:100F40000068FFF747F906900799FFF7EBF808905C
:100F50000999FFF739F980490A90FFF73BF90B909F
:100F6000774801680B98FFF7DDF87549086073480A
:100F700016990068FFF72EF931460990704800680D
:100F8000FFF728F9294607906B480068FFF722F918
:100F900006900799FFF718F908900999FFF7C2F82A
:100FA0006D490A90FFF716F90B90624801680B989B
:100FB000FFF7B8F85F4908605E4816990068FFF7C8
:100FC00009F9294609905E480068FFF703F93146A0
:100FD000079059480068FFF7FDF806900799FFF75A
:100FE000A1F808900999FFF7EFF85B490A90FFF71D
:100FF000F1F80B90514801680B98FFF793F84F49AF
:101000000860084601680068FFF7E4F80690494860
:1010100001680068FFF7DEF804904948016800683D
:10102000FFF7D8F80290444801680068FFF7D2F84B
:1010300001900299FFF776F803900499FFF772F890
:1010400005900699FFF76EF80790FFF7CCFACDE907
:10105000080101F0F5FCCDE90A01FFF707FB12904A
:10106000354812990068FFF7E7F8334908603448BB
:1010700012990068FFF7E0F8314908602D4812998D
:101080000068FFF7D9F82B4908602C4812990068CE
:10109000FFF7D2F829490860084601682848006827
:1010A000FFF798F803902348016823480068FFF78A
:1010B00091F802900399FFF787F84FF08041049070
:1010C000FFF788F80590FFF78EFACDE9060101F0E9
:1010D000CFF84FF00052214BCDE90801FFF791F90D
:1010E000CDE90A01FFF7C2FA0D90144801681148D2
:1010F0000068FFF76FF80390114801680E48006818
:10110000FFF768F802900399FFF70CF84FF0804161
:101110000490FFF75FF80590FFF765FACDE9060147
:1011200001F0A6F84FF000520C4BCDE90801FFF793
:1011300068F915E0340000202C0000203800002061
:10114000300000206F12833A3C0000204000002055
:1011500044000020CDCC4C3F6F12833BDCA54C40BB
:10116000CDE90A01FFF782FA0C900D9813900C98C4
:101170001490DDE91301C4E9000119B0BDE8F08F56
:101180001CB50446062269463B2000F0B5F89DF8E0
:1011900001009DF8001040EA012000B220809DF877
:1011A00003009DF8021040EA012000B260809DF823
:1011B00005009DF8041040EA012000B2A0801CBD8B
:1011C0001CB5044606226946432000F095F89DF8B8
:1011D00001009DF8001040EA012000B220809DF837
:1011E00003009DF8021040EA012000B260809DF8E3
:1011F00005009DF8041040EA012000B2A0801CBD4B
:1012000070B50024002500BF05E0002500E06D1C3E
:10121000322DFCDB641C322CF7DB00216B2000F04C
:1012200097F80721192000F093F806211A2000F002
:101230008FF800211C2000F08BF818211B2000F0F3
:1012400087F870BD00BFFEE7704708B54FF4E06057
:1012500000F048F825208DF8000000208DF80100EE
:1012600001208DF802008DF80300684600F002F8B6
:1012700008BD000070B5002100230F22C47804B31C
:10128000154C246804F4E064C4F5E064210AC1F15B
:101290000403CA40447804FA03F1847814402143DB
:1012A00009010E4C0678A155047804F01F050124AD
:1012B000AC4005786D11AD0005F1E025C5F80041A1
:1012C00009E0047804F01F050124AC40044D0678C1
:1012D000761145F8264070BD0CED00E000E400E01A
:1012E00080E100E002490143024A116070470000BA
:1012F0000000FA050CED00E02DE9F04107460C4630
:10130000154601F0F3F9D02001F0C2F901F01AFA04
:10131000384601F0BDF901F015FA01F0E7F9D120E6
:1013200001F0B6F901F00EFA002606E0012001F006
:1013300085F92070641C701CC6B2681EB042F5DCD2
:10134000002001F07BF9207001F0EAF9BDE8F0819E
:1013500070B505460C4601F0C9F9D02001F098F9A6
:1013600001F0F0F9284601F093F901F0EBF920467D
:1013700001F08EF901F0E6F901F0D2F970BD704785
:1013800029B1064A52690243044B5A6104E0034AF8
:1013900052698243014B5A617047000000100240BD
:1013A00029B1064A92690243044B9A6104E0034A58
:1013B00092698243014B9A6170470000001002401D
:1013C00030B500210022002400232D4D6D6805F06A
:1013D0000C0121B1042905D0082923D105E0294DAC
:1013E000056022E0274D05601FE0254D6D6805F47E
:1013F0007012234D6D6805F48034022505EB92428E
:101400001CB9214D554305600BE01D4D6D6805F479
:1014100000351DB11C4D5543056002E0194D554383
:10142000056002E0174D056000BF00BF144D6D68F8
:1014300005F0F0010909154D6B5C0568DD4045605C
:101440000F4D6D6805F4E061090A104D6B5C45684D
:10145000DD4085600A4D6D6805F46051C90A0B4D89
:101460006B5C4568DD40C560054D6D6805F4404125
:10147000890B074D6B5CC568B5FBF3F5056130BDA5
:101480000010024000127A0000093D001400002004
:101490002400002021B1028842F04002028004E0D2
:1014A00002884FF6BF731A40028070471AB18388D2
:1014B0000B43838002E083888B438380704710B5A1
:1014C0000022028802F441520B884C8823438C8806
:1014D0002343CC8823430C8923434C8923438C89A1
:1014E0002343CC8923431A430280838B4FF2FF743A
:1014F000234083830B8A038210BD704710B500F030
:1015000001F810BD0CB50020019000903348006830
:1015100040F480303149086000BF3048006800F472
:10152000003000900198401C0190009818B9019873
:10153000B0F5A06FF1D12948006800F4003010B177
:101540000120009001E0002000900098012843D184
:101550002348006840F010002149086008460068F0
:1015600020F0030008600846006840F002000860B0
:101570001A4840681949486008464068486008466B
:10158000406840F4806048600846406820F47C1061
:1015900048600846406840F4A81048600846006863
:1015A00040F08070086000BF0C48006800F00070D8
:1015B0000028F9D00948406820F003000749486036
:1015C0000846406840F00200486000BF0348406899
:1015D00000F00C000828F9D10CBD000000100240FA
:1015E00000200240042808D14FF0E021096941F0B1
:1015F00004014FF0E022116107E04FF0E02109699A
:1016000021F004014FF0E0221161704770470000A3
:1016100010B51348006840F0010011490860084601
:101620004068104908400E494860084600680E4965
:1016300008400B4908600846006820F480200860D4
:101640000846406820F4FE0048604FF41F008860A0
:10165000FFF754FF4FF000600449086010BD000020
:10166000001002400000FFF8FFFFF6FE08ED00E06A
:1016700010B50121044800F00CF818B1012102480E
:1016800000F004F810BD000000040040CA430282CC
:10169000704730B50246002000230024158A05EA71
:1016A0000103958905EA010413B10CB1012000E0A2
:1016B000002030BD00B585B0012144F20400FFF7E1
:1016C0006FFE4FF40070ADF8100018208DF8130075
:1016D00003208DF8120004A91648FFF764FA4FF4AE
:1016E0008060ADF8100004208DF8130004A91148A3
:1016F000FFF759FA4FF4E13000900020ADF80400F4
:10170000ADF80600ADF80800ADF80C000C20ADF8FF
:101710000A006946084800F04FF8012240F22551BE
:10172000054800F024F80121034800F007F805B04F
:1017300000BD0000000801400038014021B182894D
:1017400042F40052828104E082894DF6FF731A4010
:101750008281704702460020B1F5007F00D100BFB2
:1017600013880B400BB1012000E000207047F0B55A
:101770000346002400260025002040F66A17B942DF
:1017800000D100BF1846C1F3421401F01F06012723
:1017900007FA06F5012C01D10C3004E0022C01D12E
:1017A000103000E014301AB107682F43076002E0E0
:1017B0000768AF430760F0BD2DE9F04786B00546E6
:1017C0000E460024A24600BFA1460027B08900B102
:1017D00000BF2F462C8A4CF6FF700440F08804436B
:1017E0002C82AC894EF6F3100440B088318908434E
:1017F000718908430443AC81AC8A4FF6FF40044032
:10180000B0890443AC8201A8FFF7DAFD1F48874284
:1018100002D1DDF810A001E0DDF80CA0A88900F4E9
:10182000004040B10AEBCA0000EB0A1031684900E1
:10183000B0FBF1F807E00AEBCA0000EB0A103168D0
:101840008900B0FBF1F86420B8FBF0F00401200936
:10185000642101FB1089A88900F4004040B13220C6
:1018600000EBC900B0FBF1F000F00700044308E012
:10187000322000EB09106421B0FBF1F000F00F0002
:1018800004432C8106B0BDE8F08700000038014019
:10189000C1F308028280704700BFFEE70FB4054B1A
:1018A00010B503A9044A029800F04AF910BC5DF88B
:1018B00014FB0000712500086C000020490050EA6C
:1018C000C12018BF04204A0D18BF40F0010040F2AB
:1018D000FF72B2EB515F08BF40F00200012808BF61
:1018E000052070472DE9F0414F1E00EBC70104466B
:1018F000D1E9000115461E4637F006020DD02A46F2
:101900003346FEF77EFD7F1E04EBC703D3E90023B9
:10191000FEF7D0FC37F00602F1D1022F25D0042FBC
:1019200013D0062F18BFBDE8F0812A463346FEF7D4
:1019300068FDD4E90A23FEF7BDFC2A463346FEF7CC
:1019400060FDD4E90823FEF7B5FC2A463346FEF7CE
:1019500058FDD4E90623FEF7ADFC2A463346FEF7D0
:1019600050FDD4E90423FEF7A5FC2A463346FEF7D2
:1019700048FDD4E90223FEF79DFC2A463346FEF7D4
:1019800040FDD4E90023BDE8F041FEF793BC0122FD
:10199000FEF794BF0022134610461146FEF7A3BD82
:1019A000024A00201107FEF789BF000001FDFFFF7A
:1019B00002E008C8121F08C1002AFAD17047704718
:1019C000002001E001C1121F002AFBD17047000076
:1019D0000149086070470000700000202DE9FF5F9A
:1019E000DDE90220010DDDF838B0024318D044F6DD
:1019F0001050A1F2FF3141430D140F98012820D05F
:101A0000A5EB0B00401C5FEA000A4FF00004474EB4
:101A1000DFF81C91A046504616D5CAF1000728E011
:101A20000F98012443A2012808D0002100980F9BA1
:101A3000C0E90021C0E90243BDE8FF9F6FEA0B0146
:101A4000F4E7CBF10000DEE7074612E0F80707D025
:101A50002246334640464946FEF7D3FC8046894637
:101A60002246334610461946FEF7CBFC04460E4686
:101A70007F10002FEAD1DDE90201BAF1000F4246E2
:101A80004B4602DAFEF7BDFC01E0FEF72CFD0446F2
:101A90000E460022284BFEF7D1FD03D84FF0FF3051
:101AA000014607E00022254B20463146FEF702FCA6
:101AB000FEF76CFF102409E0002C0ADB0A22002349
:101AC000FEF706FE019B30321A55641E50EA0102F1
:101AD000F2D1641C019AC4F1110314440F9A012A33
:101AE00003D0012208430DD10AE0084304D00020AE
:101AF0004FF0110B0F9080E7A3EB0B056D1E0DE06F
:101B00005B4504DD4FF0000205F1010504E003DA56
:101B10004FF00002A5F10105002AECD000980F99C2
:101B2000C0E90231C0E9004586E70000000024401A
:101B30000000F03F300000000000F0430000E03FF4
:101B40002DE9FF4F95B09B468946064600250FE2DA
:101B5000252877D100242746F84A0121059400E082
:101B6000044316F8013F203B01FA03F01042F7D17D
:101B700030782A2811D06FF02F033078A0F130028E
:101B8000092A16D8059A44F0020402EB820203EBFC
:101B900042021044761C0590EFE759F8042B059299
:101BA000002A03DA504244F40054059044F0020441
:101BB000761C30782E2816D116F8010F44F0040454
:101BC0002A280DD06FF02F023078A0F13003092BB6
:101BD00009D807EB870302EB4303C718761CF3E72A
:101BE00059F8047B761C30786C280FD006DC4C2822
:101BF00017D068280DD06A2814D104E0742810D0BA
:101C00007A280FD10DE044F400140AE044F4801463
:101C100001E044F440147278824202D104F5801449
:101C2000761C761C307866280BD013DC582877D0C9
:101C300009DC002875D04528F6D04628F4D047287E
:101C40001AD19DE118E0632835D0642879D0652841
:101C500012D195E1702873D008DC6728F1D069288B
:101C60006FD06E280DD06F2806D1B5E073282CD028
:101C7000752875D0782874D05A46179990476D1CEE
:101C800075E1C4F30250022809D003280DD0D9F819
:101C9000001004280DD00D6009F1040967E1D9F89E
:101CA0000010EA17C1E90052F6E7D9F800100D80DC
:101CB000F2E70D70F0E719F8041B8DF80010002012
:101CC0008DF80100EA46012003E059F804AB4FF01B
:101CD000FF3061074FF0000102D40DE008F101016F
:101CE0008846B9420FDA8045F8DB1AF80810002957
:101CF000F4D108E008F1010188468142FADB1AF8C4
:101D000008100029F6D105985B46A0EB080721468C
:101D10003846179A00F094FA284400EB080507E0CB
:101D20004DE029E10DE01AF8010B5A46179990474A
:101D3000B8F10108F7D25B4621463846179A13E1FD
:101D400042E00A220092C4F302524FF0000A022A33
:101D500008D059F804CB032A4FEAEC710AD00DE001
:101D600029E02AE009F1070121F00702F2E802C1A7
:101D7000914609E00FFA8CFC4FEAEC71042A03D17A
:101D80004FFA8CFC4FEAEC71002907DA0A46002171
:101D9000DCF1000C61EB02012D2202E0220504D5EA
:101DA0002B228DF80420012203E0E20701D020223B
:101DB000F7E7904659E00A2102E010220DE01021D9
:101DC0004FF0000A00910BE010224FF0000A44F09F
:101DD00004040827009203E008224FF0000A009252
:101DE000C4F30252022A05D059F804CB0021032A79
:101DF00008D009E009F1070121F00702F2E802C169
:101E0000914605E01FFA8CFC042A01D10CF0FF0C6E
:101E10004FF00008220728D5702806D0009B83F0D9
:101E2000100353EA0A0305D00EE040228DF8042087
:101E3000012208E05CEA010206D030228DF804207D
:101E40008DF8050002229046009B83F0080353EAB8
:101E50000A030AD15CEA010201D1620705D53022EA
:101E60008DF804204FF001087F1E582804D034A0BC
:101E700003900EA802900DE036A0F9E753466046A5
:101E8000009AFEF725FC84460398825C0298401E67
:101E9000029002705CEA0100F0D1029806A9081ACB
:101EA00000F1200A600702D524F4803400E0012705
:101EB000574502DDA7EB0A0000E0002000EB0A0115
:101EC000009005984144401A0590E00306D45B4613
:101ED0002146179A059800F0B3F90544002706E05B
:101EE00001A85A46C05D179990476D1C7F1C474555
:101EF000F6DBE0030CD55B462146179A059800F007
:101F00009FF9054404E030205A46179990476D1C0C
:101F10000099481E00900029F5DC08E0029802991B
:101F20005A460078491C0291179990476D1CBAF1E6
:101F30000001AAF1010AF1DC65E1000009280100B5
:101F4000303132333435363738396162636465662F
:101F500000000000303132333435363738394142F1
:101F6000434445460000000000F058F90544761C43
:101F7000307800287FF4ECAD19B02846BDE8F08F2A
:101F8000620700D4062709F1070222F0070CFCE8DB
:101F90000223E14603F000485FEA080C02D00FF28A
:101FA000702C0DE05FEA045C02D50FF2682C07E0AC
:101FB0005FEAC47C02D00FF2602C01E0AFF2700C3B
:101FC0004FF0FF3823F00043CDF850C065280CD007
:101FD00006DC452809D046281DD047283DD13DE0E4
:101FE000662818D067287ED138E00021112F01DB48
:101FF000112000E0781CCDE9000106A90EA8FFF72A
:10200000EDFCDDE90F010E9A03910021009207F12A
:10201000010A04914DE04FF000400097CDE9011016
:1020200006A90EA8FFF7DAFCDDE90F0203920E9B6A
:1020300011990022DDF80CA00093049211B9791CCB
:1020400000EB010AB7EB0A0004D4C0F1FF3007F13E
:10205000010A0490AAEB0700019044E0012F00DA86
:1020600001270021112F01DD112000E03846CDE9C4
:10207000000106A90EA8FFF7B1FCDDE90F010E9AD9
:102080000391002104910092BA4621070CD40399D0
:10209000514500DA8A46BAF1010F05DD009AAAF12E
:1020A0000101515C302908D0B84202DA10F1040F66
:1020B00006DA0121CDE9011015E0AAF10101E9E7F5
:1020C000002805DC049901440491AAEB000102E018
:1020D000411C514500DD8A460499401A401C01907C
:1020E0004FF000400290200704D40198504501DBD6
:1020F000CDF8048000208DF84F0002980DF14F07B5
:10210000B0F1004F25D02B200E9002984FF002081E
:1021100000280CDA404202902D200E9007E00A21A0
:102120000298FEF7BFFA3031029007F8011DB8F1AE
:102130000001A8F10108F2DC02980028EFD1791E15
:102140000E980870307800F0200040F0450007F845
:10215000020D12A8C01B00F107081498007800B106
:10216000012000EB0A01019801EBE0710598414460
:10217000401A401E0590E00306D45B462146179A9C
:10218000059800F05DF805441498007818B15A4697
:10219000179990476D1CE00324D55B462146179A9A
:1021A000059800F04DF805441CE00498002807DB72
:1021B000DDE90301884203DD0098405C179901E0E6
:1021C000179930205A469047049805F10105401CA4
:1021D00004900198401E019004D12E205A46179970
:1021E00090476D1CBAF10001AAF1010ADDDC05E09F
:1021F00017F8010B5A46179990476D1CB8F100016A
:10220000A8F10108F4DC5B462146179A0598ABE675
:102210002D0000002B000000200000002DE9F041FF
:10222000044600251E461746880404D405E03946B6
:102230002020B0476D1C641EF9D52846BDE8F0810A
:102240002DE9F041044600251E469046C80301D5FD
:10225000302700E02027880404D505E041463846B1
:10226000B0476D1C641EF9D52846BDE8F08100001A
:102270002DE9F04D8D4F21F0004A86B005460C4601
:10228000BA452ADBAAEB070028430AD088488245D2
:1022900001DC1AD1CDB106B02846BDE8F04DFFF7FC
:1022A00076BB844A844B2846FEF7ABF807460E46B9
:1022B000824A834B28462146FEF7A3F806B03A46E9
:1022C0003346BDE8F04DFDF7F5BF0120FFF780FB79
:1022D00006B0BDE8F04DFFF75DBB7A48824542DAB3
:1022E000BAF1795F0BDA2846FFF7E8FA042808BF4D
:1022F000FFF756FB284606B02146BDE8F08D2A467A
:102300000B461046FEF77DF8834602466E480E46A1
:102310000B4606217844FFF7E5FA5A463346FEF7A6
:1023200070F8804669488A465A4633460421784404
:10233000FFF7D8FA5A463346FEF763F800223B46C9
:10234000FDF7B8FF02460B4640465146FEF7CBF874
:102350002A462346FEF755F806B02A462346BDE82E
:10236000F04DFDF7A7BF284624F0004100223D466E
:102370003B46FEF743F84FF0FF32FEF79FFA064662
:10238000024653480F460B4606217844FFF7AAFA47
:1023900032463B46FEF735F8CDE900014D4832465E
:1023A0003B4604217844FFF79DFA32463B46FEF750
:1023B00028F800222B46FDF77DFF83460291304628
:1023C000394600F03DFB804643480D46504517DC3A
:1023D000DDE900015A46029BFEF785F842462B468E
:1023E000FEF70FF842462B46FDF764FF0122FEF789
:1023F00065FA304A304BFDF7FEFF304A304B4CE077
:102400004FF0000A52460B464046FDF753FFCDE918
:10241000031052462B4610461946FDF7F2FF32468E
:102420003B46FDF7EBFFDDE90332FEF75CF80646BD
:102430000F46DDE900015A46029BFEF754F8834639
:102440000091012230463946FEF738FA194A1A4BF4
:10245000FDF7D4FF06460F46012240462946FEF707
:102460002DFA5A46009BFDF7CCFF32463B46FDF75E
:10247000C2FF06460F46012250462946FEF71EFAC5
:102480000E4DDFF858802A464346FDF7B7FF324627
:102490003B46FDF7B3FF2A464346FDF7AFFF002C4E
:1024A000D8BF81F0004106B0BDE8F08D0000F03FDC
:1024B0000000F07F075C143326A6913C182D44548D
:1024C000FB21F93F0000E03F280900003E09000021
:1024D000B2080000C80800003333EF3FFB21E93F9A
:1024E00010B56FF00400FFF77DF80A4800680A494C
:1024F000B0FBF1F0094908700846007800EB400194
:10250000C1EBC0104FF6FF7101EAC000044908801A
:1025100010BD00000000002000127A0028000020FA
:102520002A0000200146114A12884A434FF0E02356
:102530005A6100229A611A46126942F001021A6138
:1025400000BF4FF0E022106900F001021AB100F460
:102550008032002AF5D04FF0E022126922F0010209
:102560004FF0E0231A6100229A6170472A00002090
:1025700070B504460D46E1B20548FFF789F900BF82
:1025800080210348FFF7E6F80028F9D0204670BD07
:102590000038014010B54FF400600B49086000F0AE
:1025A00015F84FF480600849091F086000F00EF824
:1025B0004FF480600449086000F008F84FF40060B0
:1025C0000149091F086010BD140C0140002001E002
:1025D000411CC8B20A28FBDB7047000008B5012186
:1025E0000820FEF7DDFE4FF44060ADF80000032048
:1025F0008DF8020014208DF8030069460248FEF7AA
:10260000D2FA00F08DF808BD000C014010B54FF46F
:10261000006009490860FFF7D9FF4FF48060064960
:102620000860FFF7D3FF4FF480600349091D08607D
:10263000FFF7CCFF10BD0000100C014070B505463F
:102640000024002618E06006040E4FF480600F4955
:102650000860FFF7BBFF0D480838006800F4006011
:1026600008B1601CC4B24FF480600849091D0860BD
:10267000FFF7ACFF701CC6B2082EE4DB15B9FFF7FC
:10268000C5FF01E0FFF786FF204670BD100C01403A
:1026900070B50446002524E004F0800020B14FF41A
:1026A00000601149086004E04FF400600E49091D04
:1026B0000860FFF78BFF4FF480600B490860FFF75D
:1026C00085FF4FF480600849091D0860072D02D17D
:1026D0004000091F08606006040EFFF777FF681CC2
:1026E000C5B2082DD8DB70BD100C014010B54FF4F9
:1026F00000600A49086040100860FFF767FF4FF468
:1027000000600649091D0860FFF760FF4FF4806014
:102710000249091D0860FFF759FF10BD100C014068
:1027200010B54FF40060064908604010091F0860AA
:10273000FFF74CFF4FF400600149091F086010BD0E
:10274000140C014010B54FF400600E490860FFF70B
:102750003DFF4FF480600B490860FFF737FF0948E1
:102760000838006800F4006008B1012400E000248B
:102770004FF480600349091D0860FFF727FF2046DA
:1027800010BD0000100C014086B0FEF793FFFEF76D
:102790005CFDFFF7A5FE00F0ADF9FFF71FFFFEF7A8
:1027A0002FFD00F073F913E18A48FEF7E9FC8A482F
:1027B000FEF706FD8749B1F90000FDF703FF064665
:1027C0000022864BFDF78FFE0446FDF74FFF84493C
:1027D00008608049B1F90200FDF7F4FE06460022C8
:1027E0007E4BFDF780FE0446FDF740FF7D49086003
:1027F0007849B1F90400FDF7E5FE06460022774B63
:10280000FDF771FE0446FDF731FF77490860724914
:10281000B1F90000FDF7D6FE80460022734BFDF7AC
:1028200062FE0646724A734BFDF7EBFD0446FDF768
:102830001DFF714908606849B1F90200FDF7C2FE49
:1028400006460022694BFDF74EFE0446684A694B76
:10285000FDF7D7FD8046FDF709FF684908605E492E
:10286000B1F90400FDF7AEFE064600225F4BFDF70E
:102870003AFE04465E4A5F4BFDF7C3FD8046FDF716
:10288000F5FE5F4908605848006856490968544A8F
:102890001268CDE900210290594803685748026840
:1028A0005548016804A8FEF70BFA0598FDF79BFE52
:1028B000044600221346FDF7C1FE2AD20598FDF713
:1028C00092FE044600224F4BFDF7A0FE21D80A22BB
:1028D0001146002000F0F4F804460F2100F0F6F84D
:1028E0000598FDF780FE044622460B4646A0FEF7FB
:1028F000D5FF0498FDF777FE044622460B4648A014
:10290000FEF7CCFF45A0FEF7C9FF44A0FEF7C6FFC7
:102910005DE00598FDF767FE04460022464BFDF793
:102920008DFE2AD20598FDF75EFE0446002213466E
:10293000FDF76CFE21D80A221146104600F0C0F8BF
:1029400004460F2100F0C2F80598FDF74CFE04463E
:1029500022460B462CA0FEF7A1FF0498FDF743FE8C
:10296000044622460B462EA0FEF798FF2BA0FEF74A
:1029700095FF2AA0FEF792FF29E00598FDF733FEA8
:10298000044600222D4BFDF759FE20D20598FDF795
:102990002AFE044600221346FDF738FE17D800220F
:1029A00011460A2000F08CF804460F2100F08EF842
:1029B0000598FDF718FE044622460B4612A0FEF7C6
:1029C0006DFF16A0FEF76AFF14A0FEF767FF00BFB9
:1029D000EAE6000060000020660000200000C04021
:1029E000480000204C0000205000002000605040B3
:1029F0005F40D42247DF913F580000205400002060
:102A00005C00002000002E400D0A20616E676C659E
:102A10007920646174203A20202025660D0A000088
:102A20000D0A20616E676C6520646174203A202075
:102A30002025660D0A00000000002EC000003EC0E8
:102A40002DE9F04106460F46FDF74FFF04000D4605
:102A500018BF0120284320F00040C0F17F6000F142
:102A6000E040C00F0ED0301C18BF0120384320F0CA
:102A70000040C0F17F6000F1E040C00F04BF0120C2
:102A8000FEF7A6FF20462946BDE8F08170B5002478
:102A90000EE0002508E0E02004EB4401074A02EBC9
:102AA000C1014855681CC5B2182DF4DB601C84B206
:102AB000182CEEDB00F0ACF870BD000074000020B4
:102AC0000346080440EA03201043704770B50546EA
:102AD0000E4600240AE02946204600F07DF800F06A
:102AE00097F83046FFF71EFD601C84B2182CF2DB0D
:102AF00070BD000000B591B001210420FEF750FC2C
:102B000001210803FEF74CFC01210846FEF738FCC2
:102B10008020ADF8400018208DF8430003208DF888
:102B2000420010A92848FEF73EF84FF44040ADF8A7
:102B30002C004FF48270ADF82E000020ADF830006C
:102B4000ADF832000120ADF834004002ADF8360097
:102B50001020ADF838000020ADF83A000720ADF89D
:102B60003C000BA91948FEF7AAFC01211748FEF703
:102B700091FC012202211548FEF798FC1448FDF74C
:102B80004BFF12480C300090124801901020029028
:102B90004FF41070039000200490802005900020D6
:102BA0000690079008904FF48050099000200A90FA
:102BB00069460748FDF7D6FFFFF768FF6420FFF777
:102BC000B1FC11B000BD0000000801400030014020
:102BD000300002407400002030B50246182A13DA93
:102BE00000200FE001FA00F303F400030BB1F82317
:102BF00000E0E02302EB4204044D05EBC40423543F
:102C0000431CD8B21828EDDB30BD00007400002052
:102C100010B500210848FDF7F3FE4FF40070FDF7F2
:102C2000E1FE4FF410710448FDF7BAFF012102489C
:102C3000FDF7E6FE10BD000030000240000000007D
:102C4000555555555555C53F7D6FEB0312D6D4BF2D
:102C50005544880E55C1C93F3B8F68B52882A4BF33
:102C600088B20175E0EF493F09F7FD0DE13D023FF4
:102C70004B2D8A1C273A03C0C88A599CE52A00407C
:102C800059018D1B6C06E6BF82922EB1C5B8B33FC9
:102C9000B02C00080000002074000000B0190008EB
:102CA000242D00087400002044060000C01900080C
:102CB000007E560300000000000000000102030433
:102CC00006070809000000000102030401020304D2
:102CD0000607080902040608000000000000803F03
:102CE00000000000000000000000000000000000E4
:102CF00000000000000000000000000000000000D4
:102D000000000000000000000000000000000000C3
:102D100000000000000000000000000000000000B3
:042D200000000000AF
:04000005080000ED02
:00000001FF
