:020000040800F2
:100000007006002001010008B10400082504000862
:10001000AD04000849010008E10A000800000000E2
:10002000000000000000000000000000630700085E
:100030000D03000800000000E7050008750800082F
:100040001B0100081B0100081B0100081B01000820
:100050001B0100081B0100081B0100081B01000810
:100060001B0100081B0100081B0100081B01000800
:100070001B0100081B0100081B0100081B010008F0
:100080001B0100081B0100081B0100081B010008E0
:100090001B0100081B0100081B0100081B010008D0
:1000A0001B0100081B0100081B0100081B010008C0
:1000B0001B010008D90800081B0100081B010008EB
:1000C0001B0100081B0100081B0100081B010008A0
:1000D0001B0100081B0100081B0100081B01000890
:1000E0001B0100081B0100081B010008DFF80CD0F1
:1000F00000F018F800480047890D0008700600203D
:100100000648804706480047FEE7FEE7FEE7FEE7B1
:10011000FEE7FEE7FEE7FEE7FEE7FEE779080008F8
:10012000ED000008064C074D06E0E06840F00103D2
:1001300094E8070098471034AC42F6D3FFF7DAFF93
:100140005C1000087C10000800BFFEE700F0805142
:1001500011B10349086001E002494860704700009E
:10016000040402400000024021B1026842F0010292
:10017000026004E002684FF6FE731A4002607047A6
:1001800001684FF6FE72114001600021016041607C
:100190008160C1604B49884208D14A4908394968A1
:1001A00041F00F01474A083A51608AE0454914314D
:1001B000884208D143490839496841F0F001414A71
:1001C000083A51607DE03F492831884208D13D49D5
:1001D0000839496841F470613A4A083A516070E060
:1001E00038493C31884208D136490839496841F4D8
:1001F0007041344A083A516063E0324950318842D4
:1002000008D130490839496841F470212D4A083A2B
:10021000516056E02B496431884208D12949083998
:10022000496841F47001274A083A516049E025497C
:100230007831884208D123490839496841F0706112
:10024000204A083A51603CE01F49884206D1011F0C
:10025000096841F00F01021F116032E01A491431A0
:10026000884208D11849091F096841F0F001164A6F
:10027000121F116025E014492831884208D1124923
:10028000091F096841F470610F4A121F116018E0DC
:100290000D493C31884208D10B49091F096841F4D6
:1002A0007041094A121F11600BE007495031884222
:1002B00007D10549091F096841F47021024A121F3C
:1002C00011607047080002400804024010B5002287
:1002D000026847F6F0739A430C6A8B6823430C69F3
:1002E00023434C6923438C692343CC6923434C6AE1
:1002F00023438C6A23431A430260CB6843600B6834
:1003000083604B68C36010BD4160704770472DE942
:10031000F04102460025002600200023002400278B
:1003200091F803C00CF00F0591F803C00CF0100C0D
:10033000BCF1000F03D091F802C04CEA050591F81A
:1003400000C0BCF1000F31D0146800202BE04FF04A
:10035000010C0CFA00F3B1F800C00CEA03069E424F
:1003600020D183004FF00F0C0CFA03F7BC4305FAC1
:1003700003FC4CEA040491F803C0BCF1280F06D139
:100380004FF0010C0CFA00FCC2F814C00AE091F81E
:1003900003C0BCF1480F05D14FF0010C0CFA00FC72
:1003A000C2F810C0401C0828D1D31460B1F800C0B6
:1003B000BCF1FF0F34DD546800202EE000F1080C82
:1003C0004FF0010808FA0CF3B1F800C00CEA03067C
:1003D0009E4221D183004FF00F0C0CFA03F7BC436F
:1003E00005FA03FC4CEA040491F803C0BCF1280FA1
:1003F00005D100F1080C08FA0CF8C2F8148091F845
:1004000003C0BCF1480F07D100F1080C4FF0010800
:1004100008FA0CF8C2F81080401C0828CED35460AB
:10042000BDE8F08100BFFEE71CB504460622694620
:100430003B2000F095F89DF801009DF8001040EA7F
:10044000012000B220809DF803009DF8021040EAD0
:10045000012000B260809DF805009DF8041040EA7C
:10046000012000B2A0801CBD70B50024002500BF93
:1004700005E0002500E06D1C322DFCDB641C322CF5
:10048000F7DB00216B2000F097F80721192000F01E
:1004900093F806211A2000F08FF800211C2000F0AC
:1004A0008BF818211B2000F087F870BD00BFFEE715
:1004B000704708B54FF4E06000F048F825208DF84B
:1004C000000000208DF8010001208DF802008DF859
:1004D0000300684600F002F808BD000070B5002176
:1004E00000230F22C47804B3154C246804F4E0649C
:1004F000C4F5E064210AC1F10403CA40447804FA57
:1005000003F184781440214309010E4C0678A1556B
:10051000047804F01F050124AC4005786D11AD008E
:1005200005F1E025C5F8004109E0047804F01F0555
:100530000124AC40044D0678761145F8264070BD84
:100540000CED00E000E400E080E100E0024901433E
:10055000024A1160704700000000FA050CED00E04F
:100560002DE9F04107460C46154600F0BFFBD020B0
:1005700000F08EFB00F0E6FB384600F089FB00F04F
:10058000E1FB00F0B3FBD12000F082FB00F0DAFBCE
:10059000002606E0012000F051FB2070641C701C56
:1005A000C6B2681EB042F5DC002000F047FB2070A8
:1005B00000F0B6FBBDE8F08170B505460C4600F0D2
:1005C00095FBD02000F064FB00F0BCFB284600F057
:1005D0005FFB00F0B7FB204600F05AFB00F0B2FBD7
:1005E00000F09EFB70BD704729B1064A5269024374
:1005F000044B5A6104E0034A52698243014B5A6139
:10060000704700000010024029B1064A9269024377
:10061000044B9A6104E0034A92698243014B9A6158
:10062000704700000010024030B500210022002475
:1006300000232D4D6D6805F00C0121B1042905D072
:10064000082923D105E0294D056022E0274D0560EA
:100650001FE0254D6D6805F47012234D6D6805F49B
:100660008034022505EB92421CB9214D55430560AB
:100670000BE01D4D6D6805F400351DB11C4D554353
:10068000056002E0194D5543056002E0174D056015
:1006900000BF00BF144D6D6805F0F0010909154D4C
:1006A0006B5C0568DD4045600F4D6D6805F4E061E9
:1006B000090A104D6B5C4568DD4085600A4D6D6828
:1006C00005F46051C90A0B4D6B5C4568DD40C5609F
:1006D000054D6D6805F44041890B074D6B5CC5689D
:1006E000B5FBF3F5056130BD0010024000127A0041
:1006F00000093D00140000202400002021B10288E0
:1007000042F04002028004E002884FF6BF731A40B4
:10071000028070471AB183880B43838002E083888C
:100720008B438380704710B50022028802F4415247
:100730000B884C8823438C882343CC8823430C8923
:1007400023434C8923438C892343CC8923431A4375
:100750000280838B4FF2FF74234083830B8A0382D2
:1007600010BD704710B500F001F810BD0CB50020A9
:10077000019000903348006840F4803031490860AF
:1007800000BF3048006800F4003000900198401C21
:100790000190009818B90198B0F5A06FF1D12948DF
:1007A000006800F4003010B10120009001E000204A
:1007B00000900098012843D12348006840F01000C1
:1007C000214908600846006820F0030008600846D8
:1007D000006840F0020008601A4840681949486003
:1007E0000846406848600846406840F480604860B9
:1007F0000846406820F47C1048600846406840F491
:10080000A81048600846006840F08070086000BF8B
:100810000C48006800F000700028F9D009484068D2
:1008200020F00300074948600846406840F0020095
:10083000486000BF0348406800F00C000828F9D168
:100840000CBD00000010024000200240042808D126
:100850004FF0E021096941F004014FF0E0221161FD
:1008600007E04FF0E021096921F004014FF0E02298
:10087000116170477047000010B51348006840F0E0
:1008800001001149086008464068104908400E49B7
:100890004860084600680E4908400B490860084651
:1008A000006820F4802008600846406820F4FE00BC
:1008B00048604FF41F008860FFF754FF4FF000605E
:1008C0000449086010BD0000001002400000FFF85D
:1008D000FFFFF6FE08ED00E010B50121044800F02E
:1008E0000CF818B10121024800F004F810BD000016
:1008F00000040040CA430282704730B5024600201F
:1009000000230024158A05EA0103958905EA0104FC
:1009100013B10CB1012000E0002030BD00B585B05E
:10092000012144F20400FFF76FFE4FF40070ADF8B0
:10093000100018208DF8130003208DF8120004A970
:100940001648FFF7E4FC4FF48060ADF81000042077
:100950008DF8130004A91148FFF7D9FC4FF4E130DA
:1009600000900020ADF80400ADF80600ADF80800D6
:10097000ADF80C000C20ADF80A006946084800F0FC
:1009800043F8012240F22551054800F017F80121F3
:10099000034800F007F805B000BD00000008014062
:1009A0000038014021B1828942F40052828104E082
:1009B00082894DF6FF731A4082817047F0B5034675
:1009C000002400260025002040F66A17B94200D115
:1009D00000BF1846C1F3421401F01F06012707FAB1
:1009E00006F5012C01D10C3004E0022C01D11030AD
:1009F00000E014301AB107682F43076002E007686F
:100A0000AF430760F0BD00002DE9F04786B0054612
:100A10000E460024A24600BFA1460027B08900B1BF
:100A200000BF2F462C8A4CF6FF700440F088044328
:100A30002C82AC894EF6F3100440B088318908430B
:100A4000718908430443AC81AC8A4FF6FF400440EF
:100A5000B0890443AC8201A8FFF7E6FD1F48874236
:100A600002D1DDF810A001E0DDF80CA0A88900F4A7
:100A7000004040B10AEBCA0000EB0A10316849009F
:100A8000B0FBF1F807E00AEBCA0000EB0A1031688E
:100A90008900B0FBF1F86420B8FBF0F004012009F4
:100AA000642101FB1089A88900F4004040B1322084
:100AB00000EBC900B0FBF1F000F00700044308E0D0
:100AC000322000EB09106421B0FBF1F000F00F00C0
:100AD00004432C8106B0BDE8F087000000380140D7
:100AE00000BFFEE702E008C8121F08C1002AFAD1C1
:100AF00070477047002001E001C1121F002AFBD19E
:100B00007047000010B56FF00400FFF79FFE0A4821
:100B100000680A49B0FBF1F00949087008460078FE
:100B200000EB4001C1EBC0104FF6FF7101EAC000BD
:100B30000449088010BD00000000002000127A0067
:100B4000280000202A0000200146114A12884A434A
:100B50004FF0E0235A6100229A611A46126942F06E
:100B600001021A6100BF4FF0E022106900F001029B
:100B70001AB100F48032002AF5D04FF0E022126959
:100B800022F001024FF0E0231A6100229A617047BF
:100B90002A00002010B54FF400600B49086000F0F7
:100BA00015F84FF480600849091F086000F00EF83E
:100BB0004FF480600449086000F008F84FF40060CA
:100BC0000149091F086010BD140C0140002001E01C
:100BD000411CC8B20A28FBDB7047000008B50121A0
:100BE0000820FFF711FD4FF44060ADF8000003202E
:100BF0008DF8020014208DF8030069460248FFF7C3
:100C000086FB00F08DF808BD000C014010B54FF4D4
:100C1000006009490860FFF7D9FF4FF4806006497A
:100C20000860FFF7D3FF4FF480600349091D086097
:100C3000FFF7CCFF10BD0000100C014070B5054659
:100C40000024002618E06006040E4FF480600F496F
:100C50000860FFF7BBFF0D480838006800F400602B
:100C600008B1601CC4B24FF480600849091D0860D7
:100C7000FFF7ACFF701CC6B2082EE4DB15B9FFF716
:100C8000C5FF01E0FFF786FF204670BD100C014054
:100C900070B50446002524E004F0800020B14FF434
:100CA00000601149086004E04FF400600E49091D1E
:100CB0000860FFF78BFF4FF480600B490860FFF777
:100CC00085FF4FF480600849091D0860072D02D197
:100CD0004000091F08606006040EFFF777FF681CDC
:100CE000C5B2082DD8DB70BD100C014010B54FF413
:100CF00000600A49086040100860FFF767FF4FF482
:100D000000600649091D0860FFF760FF4FF480602E
:100D10000249091D0860FFF759FF10BD100C014082
:100D200010B54FF40060064908604010091F0860C4
:100D3000FFF74CFF4FF400600149091F086010BD28
:100D4000140C014010B54FF400600E490860FFF725
:100D50003DFF4FF480600B490860FFF737FF0948FB
:100D60000838006800F4006008B1012400E00024A5
:100D70004FF480600349091D0860FFF727FF2046F4
:100D800010BD0000100C01401CB5FFF7C7FDFFF7B8
:100D900090FBFFF7B7FE00F0BDF8FFF71FFFFFF76E
:100DA00063FB00F071F86AE06846FFF73DFBBDF9B0
:100DB000000010F57A7F0EDBBDF90000B0F57A7FF8
:100DC00009DA0A221146104600F078F804460F218D
:100DD00000F07AF853E0BDF90000294988420FDDA0
:100DE000BDF900006FF47A71884209DA00221146D9
:100DF0000A2000F063F804460F2100F065F83EE099
:100E0000BDF900001F4988420EDDBDF90000491000
:100E1000884209DA00220A21084600F04FF8044609
:100E20000F2100F051F82AE0BDF9000043F69821A7
:100E300088420FDABDF9000040F2E931884209DD4D
:100E40000A221146002000F039F804460F2100F074
:100E50004EF814E0BDF9000047F2305188420EDA36
:100E6000BDF9000043F69921884208DD0A220021DD
:100E7000084600F023F804460F2100F038F893E705
:100E800068C5FFFFD08AFFFF70B500240EE0002583
:100E900008E0E02004EB4401074A02EBC101485599
:100EA000681CC5B2182DF4DB601C84B2182CEEDB74
:100EB00000F0BEF870BD00002C00002003460804BE
:100EC00040EA03201043704770B505460E460024E3
:100ED0000AE02946204600F08FF800F0A9F83046D5
:100EE000FFF732FE601C84B2182CF2DB70BD70B5C7
:100EF00005460E46182409E0A0B2294600F07CF809
:100F000000F096F83046FFF71FFE641E002CF3DA5F
:100F100070BD000000B591B001210420FFF774FB03
:100F200001210803FFF770FB01210846FFF75CFB76
:100F30008020ADF8400018208DF8430003208DF884
:100F4000420010A92848FFF7E2F94FF44040ADF8FD
:100F50002C004FF48270ADF82E000020ADF8300068
:100F6000ADF832000120ADF834004002ADF8360093
:100F70001020ADF838000020ADF83A000720ADF899
:100F80003C000BA91948FFF7CEFB01211748FFF7DA
:100F9000B5FB012202211548FFF7BCFB1448FFF7FF
:100FA000EFF812480C300090124801901020029087
:100FB0004FF41070039000200490802005900020D2
:100FC0000690079008904FF48050099000200A90F6
:100FD00069460748FFF77AF9FFF756FF6420FFF7E5
:100FE000B3FD11B000BD0000000801400030014019
:100FF000300002402C00002030B50246182A13DAD7
:1010000000200FE001FA00F303F400030BB1F82312
:1010100000E0E02302EB4204044D05EBC40423543A
:10102000431CD8B21828EDDB30BD00002C00002096
:1010300010B500210848FFF797F84FF40070FFF74C
:1010400085F84FF410710448FFF75EF9012102485A
:10105000FFF78AF810BD0000300002407C10000845
:10106000000000202C000000E40A0008A81000087E
:101070002C00002044060000F40A0008007E5603FD
:101080000000000000000000010203040607080938
:10109000000000000102030401020304060708091E
:0810A000020406080000000034
:04000005080000ED02
:00000001FF
